{
  "contractName": "HealthData",
  "abi": [
    {
      "constant": false,
      "inputs": [],
      "name": "printData",
      "outputs": [
        {
          "name": "",
          "type": "string"
        }
      ],
      "payable": false,
      "stateMutability": "nonpayable",
      "type": "function"
    }
  ],
  "bytecode": "0x6060604052341561000f57600080fd5b6101578061001e6000396000f300606060405260043610610041576000357c0100000000000000000000000000000000000000000000000000000000900463ffffffff168063e81bd2a414610046575b600080fd5b341561005157600080fd5b6100596100d4565b6040518080602001828103825283818151815260200191508051906020019080838360005b8381101561009957808201518184015260208101905061007e565b50505050905090810190601f1680156100c65780820380516001836020036101000a031916815260200191505b509250505060405180910390f35b6100dc610117565b6040805190810160405280600b81526020017f4865616c74682044617461000000000000000000000000000000000000000000815250905090565b6020604051908101604052806000815250905600a165627a7a72305820e64823eb05510deb35272e0fbd7760bfde146351655b44f5cbcba1815e78ab3b0029",
  "source": "pragma solidity ^0.4.17;\n\ncontract HealthData {\n    function printData() returns(string) {\n        return (\"Health Data\");\n    }\n}",
  "sourcePath": "/home/karadalex/Desktop/ehosp/blockchain/contracts/HealthData.sol",
  "compiler": {
    "name": "solc",
    "version": "0.4.18+commit.9cf6e910.Emscripten.clang"
  },
  "schemaVersion": "1.0.1",
  "updatedAt": "2017-11-26T09:20:06.524Z"
}